:100000000C9461000C947E000C947E000C947E0095
:100010000C947E000C947E000C947E000C947E0068
:100020000C947E000C947E000C947E000C947E0058
:100030000C947E000C947E000C947E000C947E0048
:100040000C9420010C947E000C947E000C947E0095
:100050000C947E000C947E000C947E000C947E0028
:100060000C947E000C947E00000000002400270009
:100070002A0000000000250028002B0000000000DE
:1000800023002600290004040404040404040202DA
:100090000202020203030303030301020408102007
:1000A0004080010204081020010204081020000012
:1000B0000007000201000003040600000000000029
:1000C000000011241FBECFEFD8E0DEBFCDBF11E08E
:1000D000A0E0B1E0E2E2F4E002C005900D92A830A9
:1000E000B107D9F711E0A8E0B1E001C01D92A3313A
:1000F000B107E1F70E94A2000C940F020C940000DB
:100100001F9310910401809108010E94A900BC0175
:10011000812F0E94C70010910201809100010E946E
:10012000A900BC01812F0E94C7001F9108958091F2
:10013000020161E00E94A2018091040161E00E943D
:10014000A20108950E9468010E9497000E94800009
:10015000FDCF8F70909106019295990F990F907C29
:10016000982B90937C0080917A00806480937A0031
:1001700080917A0086FDFCCF209178004091790033
:10018000942F80E030E0282B392BC90108951F936C
:10019000CF93DF93182FEB0161E00E94A201E12FC2
:1001A000F0E0E255FF4F8491833051F4809180005C
:1001B000806880938000D0938900C09388003CC001
:1001C000843051F480918000806280938000D093CD
:1001D0008B00C0938A0030C0813039F4209729F118
:1001E00084B5806884BDC7BD27C0823039F42097AC
:1001F000E1F084B5806284BDC8BD1EC0863041F484
:100200008091B00080688093B000C093B30014C0A8
:10021000873041F48091B00080628093B000C09339
:10022000B4000AC0C038D1051CF4812F60E002C0C0
:10023000812F61E00E94C201DF91CF911F9108954B
:100240001F920F920FB60F9211242F933F938F930B
:100250009F93AF93BF9380910E0190910F01A09156
:100260001001B0911101309112010196A11DB11D33
:10027000232F2D5F2D3720F02D570196A11DB11D85
:100280002093120180930E0190930F01A09310010F
:10029000B093110180910A0190910B01A0910C0182
:1002A000B0910D010196A11DB11D80930A0190939B
:1002B0000B01A0930C01B0930D01BF91AF919F91E1
:1002C0008F913F912F910F900FBE0F901F90189517
:1002D000789484B5826084BD84B5816084BD85B521
:1002E000826085BD85B5816085BDEEE6F0E08081E8
:1002F00081608083E1E8F0E080818260808380819A
:1003000081608083E0E8F0E0808181608083E1EBC0
:10031000F0E0808184608083E0EBF0E080818160A8
:100320008083EAE7F0E0808184608083808182605E
:100330008083808181608083808180688083109247
:10034000C1000895282F30E0C90186569F4FFC0157
:1003500094912A573F4FF9018491882391F0E82F17
:10036000F0E0EE0FFF1FE859FF4FA591B49166230F
:1003700029F48C91909589238C9308958C91892BE5
:100380008C930895482F50E0CA0182559F4FFC017D
:100390002491CA0186569F4FFC0194914A575F4FA2
:1003A000FA0134913323D1F1222331F1233021F4A6
:1003B000809180008F7705C0243031F480918000D7
:1003C0008F7D8093800018C0213019F484B58F7719
:1003D00004C0223021F484B58F7D84BD0DC0263049
:1003E00021F48091B0008F7705C0273029F48091E7
:1003F000B0008F7D8093B000E32FF0E0EE0FFF1F81
:10040000EE58FF4FA591B491662329F48C919095F5
:1004100089238C9308958C91892B8C930895F8945B
:02042000FFCF0C
:08042200010009000B000100BC
:00000001FF
